{
  "contractName": "DappToken",
  "abi": [
    {
      "inputs": [],
      "payable": false,
      "stateMutability": "nonpayable",
      "type": "constructor"
    },
    {
      "constant": true,
      "inputs": [],
      "name": "totalSupply",
      "outputs": [
        {
          "internalType": "uint256",
          "name": "",
          "type": "uint256"
        }
      ],
      "payable": false,
      "stateMutability": "view",
      "type": "function"
    }
  ],
  "bytecode": "0x608060405234801561001057600080fd5b506001610068576040517f08c379a000000000000000000000000000000000000000000000000000000000815260040180806020018281038252602c815260200180610104602c913960400191505060405180910390fd5b620f42406000819055506084806100806000396000f3fe6080604052348015600f57600080fd5b506004361060285760003560e01c806318160ddd14602d575b600080fd5b60336049565b6040518082815260200191505060405180910390f35b6000548156fea265627a7a72315820732a05fa500c8c10c5fa1b7fc9081b79b6f3396677a49c3931b42d13cf65136764736f6c634300051000322e2e2e2e2e2e2e2e2e2e2e2e2e2e2e2e20646973706c617965642e2e2e2e2e2e2e2e2e2e2e2e2e2e2e2e2e2e",
  "source": "// SPDX-License-Identifier: MIT\npragma solidity >=0.4.22 <0.9.0;\n\ncontract DappToken {\n    // Constructor\n    // Set the total number of tokens\n    // Read the total number of tokens\n    uint256 public totalSupply;\n    \n    constructor() public { require(true, \"................ displayed..................\"); totalSupply = 1000000;}\n}",
  "sourcePath": "H:/remaining/project/AMZ_Token/contracts/AMZToken.sol",
  "compiler": {
    "name": "solc",
    "version": "0.5.16+commit.9c3226ce.Emscripten.clang"
  },
  "schemaVersion": "3.3.4",
  "updatedAt": "2021-03-28T14:32:11.974Z",
  "networkType": "ethereum",
  "devdoc": {
    "methods": {}
  },
  "userdoc": {
    "methods": {}
  }
}